:020000040000FA
:1000000070680010B1010000B9010000BB010000E0
:10001000BD010000BF010000C10100005A5A5A5A38
:10002000CB010000CB010000CB010000C3010000A8
:10003000C5010000CB010000C70100007D0B0000DE
:10004000CD010000CD010000CD010000CB0100007A
:10005000CD010000CD010000CD010000CD01000068
:10006000CD010000CD010000CD010000CD01000058
:10007000CD010000CD010000CD010000CD01000048
:10008000CD010000CD010000CD010000CD01000038
:10009000CD010000CD010000CD010000CD01000028
:1000A000CD010000CD010000CD010000CD01000018
:1000B000CD010000CD010000CD010000CD01000008
:1000C000CD010000CD010000CD010000CD010000F8
:1000D000CD010000CD010000CD010000CD010000E8
:1000E000CD010000CD010000CD010000CD010000D8
:1000F000CB010000CD010000CD010000CD010000CA
:10010000CB010000CD010000CB010000CD010000BB
:10011000CD01000000F002F800F03AF80AA090E8E3
:10012000000C82448344AAF10107DA4501D100F0B2
:100130002FF8AFF2090EBAE80F0013F0010F18BF45
:10014000FB1A43F001031847100D0000300D0000AA
:10015000103A24BF78C878C1FAD8520724BF30C8F3
:1001600030C144BF04680C607047000000230024C5
:1001700000250026103A28BF78C1FBD8520728BFB7
:1001800030C148BF0B6070471FB51FBD10B510BD13
:1001900000F003F91146FFF7F7FF00F015FD00F03E
:1001A00021F903B4FFF7F2FF03BC00F00BFD0000E0
:1001B0000A4880470A480047FEE7FEE7FEE7FEE7F9
:1001C000FEE7FEE7FEE7FEE7FEE7FEE7FEE70000EC
:1001D00004480549054A064B70470000B10B000072
:1001E00015010000700000107068001070600010B1
:1001F0007060001053EA020C00F069802DE9F04BAA
:100200004FF00006002B1FBFB3FA83F503FA05F485
:1002100024FA05F65E4012BF1643B2FA82F502FADE
:1002200005F4C5F120051EBF22FA05FC44EA0C04C2
:10023000203556EA044C4FEA144418BF641C4FF0B2
:1002400000084FF00009904271EB030C39D30029EC
:1002500019BFB1FA81F701FA07F6B0FA80F700FA90
:1002600007F6C7F120071EBF20FA07FC46EA0C0676
:100270002037B6FBF4FCA7EB0507103F07F01F0B78
:10028000CBF120060CFA0BFB2CFA06F644BFB34662
:100290000026202FA4BF5E464FF0000B5BEA060C41
:1002A00008BF4FF0010B19EB0B09ABFB027C48EBCD
:1002B0000608C01B06FB02CC0BFB03CC71EB0C0148
:1002C000C1E70B46024641464846BDE8F08B13B5F0
:1002D0004FF000004FF00001AFF30080BDE81C407C
:1002E000704710B5203AC0F00B80B1E81850203AA2
:1002F000A0E81850B1E81850A0E81850BFF4F5AFC6
:100300005FEA027C24BFB1E81850A0E8185044BF4F
:1003100018C918C0BDE810405FEA827C24BF51F8BC
:10032000043B40F8043B08BF7047D20728BF31F8B0
:10033000023B48BF11F8012B28BF20F8023B48BF01
:1003400000F8012B70474FF0000200B513469446A9
:100350009646203922BFA0E80C50A0E80C50B1F11D
:100360002001BFF4F7AF090728BFA0E80C5048BF31
:100370000CC05DF804EB890028BF40F8042B08BFCF
:10038000704748BF20F8022B11F0804F18BF00F8CB
:10039000012B7047704770477047754600F02CF886
:1003A000AE4605006946534620F00700854618B062
:1003B00020B5FFF70DFFBDE820404FF000064FF0DD
:1003C00000074FF000084FF0000B21F00701AC468A
:1003D000ACE8C009ACE8C009ACE8C009ACE8C009A9
:1003E0008D46704710B50446AFF300802046BDE847
:1003F0001040FFF7D6BE0000004870471000001004
:10040000002800DA4042704710B5084C204600F042
:10041000D9F8204600F026FB4FF4E131204600F0E9
:1004200047FB0320E0600120E06510BD001008409C
:100430002DE9F041FFF7E8FF104E304600F07BFA5F
:100440000F4D002405EB440715F814107A78304658
:1004500000F072FA15F81400797806EB40100122CA
:100460004254641C032CEDD30648D0F82C1141F003
:100470000401C0F82C11BDE8F081000000400F40DD
:100480006C0D00000030044010B503280BD2074B60
:10049000054C81F0010113F8102003EB400004EB40
:1004A00042124078115410BD00400F406C0D000006
:1004B00010B503280BD2074901EB400211F81010C8
:1004C0005278054800F030FA80F0010010BD00209D
:1004D00010BD00006C0D000000400F4010B5044638
:1004E000FFF7E6FF80F001012046BDE81040FFF76E
:1004F000CBBF000070B5012200231146052000F09B
:10050000E3F91B48016841F08041016019491A482C
:100510001A4DB1FBF0F0D5F8202122F4704242EAE6
:100520000032C5F82021D5F8242122F4704242EA95
:100530000030C5F824010122062000F007FA104E11
:10054000002400BF06EB8400C3788278417816F857
:10055000240000F0B9F9641C032CF3D3686820F080
:100560000C006860686840F00300686070BD0000BF
:10057000003000400095BA0A70374801003004404E
:10058000720D000070B509490D24094E002000BF0E
:1005900001EB800511F820306A78DB0103EB820261
:1005A0006D889551401CA042F2D370BD7E0D0000B5
:1005B0000060084010B5FFF7E5FFBDE81040FFF709
:1005C00099BF00000349122008600349D120086048
:1005D00070470000106308400461084070B505468C
:1005E0000C46087900F086F81549164A29444FF060
:1005F000FF366061914220D2F8B180212160002154
:10060000A160E160B5FBF0F10F4A2161954202D390
:100610004143A94207D02146284600F045FBA06887
:1006200058B1401EA060206938B1E16809B1491E87
:10063000E160401E2061002070BD304670BD0000AA
:10064000103A6BFF11CF250A005F4C0908B50D4920
:100650004FF47A70009088698A6920F00200824223
:1006600000D08861084A094B20F0010012689A42C4
:1006700001D340F0040088610098411E0091FBD234
:1006800008BD000000000540680D0000002D31018C
:1006900010B5012401B103240AB144F00404022B73
:1006A00001D144F02004064AB0F5A17F02EBC0015D
:1006B00002D9C1F8E84610BDC1F8004110BD0000E4
:1006C000001005401C2805D2054901EB8000C06DD3
:1006D000C10701D011207047C0F3046070470000CB
:1006E0000000054010B5FFF7EDFFBDE8104000F039
:1006F00001B8000030B4024600201F4B1F49204CB7
:10070000112A0CD2DFE802F0090D0F171F0B21246C
:1007100026280B0B2B2D2F3133004FF4004030BC1B
:1007200070471848FBE7D3F82C2102F00702042A8F
:10073000F5D00846F3E7D3F82C0100F007000428B1
:10074000F7D11148EBE7114800E011480068E6E7EF
:100750002068E4E76068E2E730BC00F04BB80021B5
:1007600006E0012104E0022102E0032100E004216F
:1007700030BC104600F00EB80030044040787D01D7
:1007800008000010001BB70080F0FA02640D0000A2
:10079000680D000010B50A46084600F01DF8034633
:1007A000104600F009F804461846FFF7A3FF641C42
:1007B000B0FBF4F010BD000004A1064A095C02EB96
:1007C0008000806C01EA900070470000030F0F0F5B
:1007D000FF00000000000540054901EB8000806C2F
:1007E000C10701D011207047C0F3046070470000BA
:1007F00000000540F8B5144D6C6CC4F30360FFF7BE
:1008000079FF12A109680091296CC90713D0C4F3BC
:100810000131C4F30742C4F30125C4F3C013491CDA
:10082000C4F380141DF80550521C234305D0B0FBBF
:10083000F1F05043F8BD0020F8BD6B00B2FBF3F2BD
:10084000B0FBF1F05043F8BD000005400102040880
:100850002DE9F0411A4AB0F5A17F02EBC00102D99F
:10086000D1F8E84601E0D1F80041E10726D01C218B
:100870000022144B0EE000BF33F81660864208D801
:100880006D88854205D302EB420003EB40000179FD
:1008900007E0521C02EB420603EB46052F798F421C
:1008A000EAD10846FFF71EFF6109490704D002217B
:1008B000B0FBF1F0BDE8F0810121F9E70020F9E794
:1008C00000100540B20D000030B50B4C04EB800564
:1008D000EC6D1C280DD211290AD0084804400AB139
:1008E00044F400640BB144F0010444EA0160E8659B
:1008F00030BD44F00100FAE700000540FEF7FFE0DC
:1009000002790168836841EA0261028AC0681204C0
:1009100042EA0332114341EA0020024940F40060F8
:10092000486470470000054000EB4110805C0028DF
:1009300000D001207047704700EB810000F50050A7
:100940000168012393401943016070472DE9F0438A
:1009500005468DB000274FF4FA70914688463E4612
:100960000890062D01D1FFF771FE002301222946D0
:100970000420FFF7A9FF2D4C606C40F0010060647B
:100980008DF8045069464046FFF728FE28498845FF
:100990000ED90098410600D5FEE7010604D520F0E7
:1009A00080000127009003E003980126401C03907B
:1009B0006846FFF7A5FF206C10F0010FFBD0002365
:1009C000012209210420FFF77FFF4FF47A7057B10D
:1009D0000890411E089101D30846FAE7009840F0BC
:1009E0008000009009E05EB10890411E089101D39B
:1009F0000846FAE70398401E03906846FFF780FF19
:100A0000B9F1000F0ED00B4D002400BF05EB8400A0
:100A1000C3788278417815F82400FFF755FF641CED
:100A20000F2CF3D30DB0BDE8F083000000000540AB
:100A300080778E061C0E00000949401809D0B0F5D9
:100A4000805F07D0B0F5802F06D0B0F5822F05D09B
:100A50000020704701207047022070470320704734
:100A600000F0F7BF38B50446FFF7E6FF0E49012353
:100A70001A4631F810001946FFF70AFE0720A06059
:100A80000020E0656060E0602062E06460652065F1
:100A900006498C4202D12061A06900900320E060E9
:100AA0001020A06238BD00000C0E0000002008409D
:100AB0002DE9F34F81B0002407464FF001094FF0B4
:100AC000FF3A0094FFF7B8FF2B4931F81000FFF709
:100AD000BFFE83460125002622E00298AA19424360
:100AE0004FEA0B7CACFB05084FEA1B1101FB0581AB
:100AF00000230CFB0311FFF77DFB002801DA4042C5
:100B0000491C82450BD351B10A0C08D1032900D2EC
:100B10002EB90C46A94600965FEA000A02D0761C60
:100B2000AE42DAD36D1CBAF1000F01D0102DD2D332
:100B300004B3F86840F08000F860E1B2C4F3072025
:100B400039607860F86820F08000F86000994FEA1A
:100B5000097001F00F0141EA1060B862009A4FEA93
:100B60001B1009EB020100FB09F06143B0FBF1F03F
:100B7000BDE8FE8F0020FBE7140E00000649086860
:100B8000401C08603221B0FBF1F201FB120000288A
:100B900001D1FFF7A3BC70470000001010B5692019
:100BA000FFF756FE0149086010BD00000400001068
:100BB000024803490160FFF7FDBC000008ED00E0BA
:100BC0000000000030BFFDE7FFF7E8FFFFF730FC53
:100BD0000B484FF47A710068B0FBF1F0401EB0F1A1
:100BE000807F0AD24FF0E0214861064AE02082F877
:100BF000140D002088610720086130BFFDE7000068
:100C0000040000100FE000E02DE9F34F81B0086808
:100C10000C46DDF804B0010602D520F0400020604B
:100C2000DFF87C904FF0010800250126206841067E
:100C300005D5691C626906FA01F1514301E0616959
:100C40007143B1FBF8F74F451CD316498F421DD8AD
:100C5000000601D5BA4602E0681C27FA00FA01999D
:100C6000A1EB0A000090FFF7CBFB58450AD2681CA5
:100C7000C4F80880C4E90306C4E906A70098FFF792
:100C8000BFFB8346761CB6F5807FCFDD6D1C042D3F
:100C9000CBDB08F10108B8F1040FC5DDBDE8FE8F1C
:100CA000005F4C0900D012132DE9F04399B00D46B6
:100CB000044660216846FFF746FB0098694640F00D
:100CC000800000906869059028798DF8040020461E
:100CD000FFF79AFF0698A04202D1202269462DE034
:100CE000201AFFF78DFB0746109810A920F040004E
:100CF00010906869159028798DF84400894620463F
:100D0000FFF782FF1698A04202D12022494615E043
:100D1000201AFFF775FB124906460DF120088C4298
:100D200012D84020089068690D9041462046FFF790
:100D30006BFF0E98A04207D1202241462846FFF7BC
:100D4000D0FA19B0BDE8F0830E98201AFFF758FBCF
:100D5000874202DCB742D8DCBFE7B042ECDDD4E723
:100D600080778E0600000000001BB7000305000717
:100D700003070803010007030100030F010106092F
:100D80004000060B4000020740000205440001122B
:100D9000B3000114B3000001B600010FF30000001E
:100DA000F2000110F7000111F3000200B700011377
:100DB000F000000005000A002000240009004000A7
:100DC000400005006000A6000400E000E000010013
:100DD00000010001030043014301190063016301A5
:100DE0001300830183011200A301A3011100C301B9
:100DF000C3011000E301E3010F00030203020E0030
:100E0000230223020D00240224021C008100820020
:100E1000A100A200C301A30183016301000101003D
:100E2000090901000A090100010701010D0901007A
:100E30000E0901000F09010010090100110901004C
:100E40001209010013090100141101001911010018
:100E50001A1101001B110100780E000000000010A3
:100E60001000000050010000880E0000100000106B
:100E7000606800006C01000000000000000000003D
:080E800000000000000000006A
:0400000500000115E1
:00000001FF
