:020000041000EA
:10050000B86E00102D0600103506001037060010DA
:10051000390600103B0600103D0600105A5A5A5A80
:100520000000000000000000000000003F06001076
:1005300041060010000000004306001011280010C2
:1005400047060010000000004706001000000000F1
:100550004706001047060010470600104706001027
:100560004706001047060010470600104706001017
:100570004706001047060010470600104706001007
:1005800047060010470600104706001047060010F7
:100590000000000047060010470600104706001044
:1005A00047060010470600104706001047060010D7
:1005B0004706001047060010000000000000000081
:1005C00047060010470600104706001047060010B7
:1005D00047060010470600104706001047060010A7
:1005E0004706001047060010470600104706001097
:1005F0000000000000000000470600104706001041
:100600000000000047060010000000004706001030
:1006100047060010DFF810D002F0A6FF00480047A0
:100620008D280010AFF30080B86E00100648804798
:1006300006480047FEE7FEE7FEE7FEE7FEE7FEE7C7
:10064000FEE7FEE7FEE7FEE72F0F0010150600109D
:1006500030B51F24FD4D2C60FD4CFE4DEC66002492
:10066000AC6140F2DC5100E0491E0029FCD1F94C9C
:10067000646C44F00104F74D6C64F74C6C6400BF8B
:10068000F44C246C04F00104002CF9D0F34CF14D2F
:10069000EC6640F21A4100E0491E0029FCD1F04C02
:1006A000EC4D6C6400BFEB4C246C04F00104002C96
:1006B000F9D0EA4CE74DEC662C46246A44F001047C
:1006C0002C624FF48040142424B1012C05D0022C5C
:1006D00007D104E04FF0FF3012E0E24810E0E248BA
:1006E0000EE0142108E080EA500404F00104C0F395
:1006F0004D0545EA8430491CB1F5004FF3D900BFE0
:1007000000BF0B221823540444EA83540443D14D00
:100710006C628020012424B1012C05D0022C09D167
:1007200005E04FF0FF3018E040F2023015E040F2F3
:10073000022012E001210CE080EA900484EAD00457
:1007400084EA101404F00104C0F3460545EAC4101D
:10075000491CB1F5807FEFD900BF00BF0403BD4D38
:10076000AC621020012424B1012C05D0022C07D149
:1007700004E04FF0FF3012E0622010E042200EE073
:10078000012108E080EA900404F00104C0F343056D
:1007900045EA0410491CB1F5007FF3D900BF00BF42
:1007A000AC4CA46A0443AB4DAC62B04C2C6200BFAD
:1007B000A84CE46904F00104002CF9D0A74CA03443
:1007C000A44DAC64A24CA034EC64A14C2C656C65C7
:1007D000A24C8434AC6530BD2DE9F04704464FF49B
:1007E0007A70A3490968A0FB01700146A14A002361
:1007F000384602F009FC0022A0FB045701FB0471FB
:1008000000FB021104220023284602F0FDFB814672
:1008100000BFB9F10000A9F10109FAD1BDE8F087E4
:100820002DE9F04385B007209349086000BF924846
:10083000001D006800F001000028F8D08C48006816
:100840008E49884203D200208D49086003E047F2B8
:1008500077708B490860F2208A490860894980399D
:10086000C1F88400874908310860F320091D086039
:10087000091D0860091D0860091D0860091D086040
:10088000091D0860091D0860091D0860091D086030
:10089000091D0860091D0860091D0860F2207949DA
:1008A00080310860091D0860091D0860754998318C
:1008B0000860F320091D0860091D0860091D086013
:1008C000091D0860091D0860091D0860091D0860F0
:1008D000F2206D490860091D0860091D0860091DA6
:1008E0000860091D0860091D0860091D0860091DD0
:1008F0000860F120644984310860091D0860F32014
:10090000091D0860091D0860091D0860F120091D06
:100910000860091D0860091D0860F320091D0860B2
:10092000091D0860091D0860091D08605749086015
:10093000F22057490860091D0860091D0860091D5B
:100940000860091D0860091D0860091D0860091D6F
:100950000860091D0860091D0860091D0860091D5F
:100960000860091D0860091D0860091D0860091D4F
:100970000860091D0860F320454980310860091DA1
:100980000860091D0860091D0860091D0860091D2F
:100990000860091D0860091D0860091D0860091D1F
:1009A0000860091D0860091D0860091D0860091D0F
:1009B0000860091D0860091D0860012035490860AC
:1009C0000020886000242A480068334988422ED9D4
:1009D00001244FF0000910E04FEA890000F1805037
:1009E00000684DF829002D4850F829104FEA890079
:1009F00000F18050016009F10109B9F1050FEBD355
:100A0000BFF36F8F27221C4948312548254B984753
:100A10004FF0000908E05DF829104FEA890000F165
:100A20008050016009F10109B9F1050FF3D3F020FD
:100A30001D490860091D0860091D0860091D08603E
:100A40008A2002490C39086000202FE00C52004037
:100A5000000800010000054000000E060008000923
:100A600080080E0603800100030001001C08000638
:100A70000065001000CA9A3B3014054000B4C4045D
:100A8000006D0840806008408062084010650840A2
:100A90008066084000500040000E2707AA3500106D
:100AA0002C31044001000010006C0840FA49C1F8E4
:100AB00008020220F94908605A21F9480268601CBE
:100AC000B2FBF0F0A1FB00500146F64A0023284695
:100AD00002F09AFA401CF049C1F80C020846D0F81E
:100AE000000240F40020F04908604FF48A40EF49CA
:100AF000086040F2033001F1040108604FF001008A
:100B0000E54988624FF01401E548026804F10100EC
:100B1000B2FBF0F0A1FB0051E24A4FF0000328467F
:100B200002F072FADC4908632A21DD480268601C81
:100B3000B2FBF0F0A1FB0051DA4A0023284602F094
:100B400063FAD54948633F21D5480268601CB2FB6F
:100B5000F0F0A1FB0051D34A0023284602F054FADA
:100B6000CD4988634621CE480268601CB2FBF0F094
:100B7000A1FB0051CB4A0023284602F045FAC649A2
:100B8000C8634621C6480268601CB2FBF0F0A1FBB6
:100B90000051C44A0023284602F036FABE490864D0
:100BA0001E21BF480268601CB2FBF0F0A1FB00519F
:100BB000BC4A0023284602F027FAB74948643F217F
:100BC000B7480268601CB2FBF0F0A1FB0050014680
:100BD000B44A0023284602F017FAAF4988643F213F
:100BE000AF480268601CB2FBF0F0A1FB0050014668
:100BF000AC4A0023284602F007FAA749C8643F21FF
:100C0000A7480268601CB2FBF0F0A1FB005001464F
:100C1000A44A0023284602F0F7F99F4908650E21EF
:100C20009F480268601CB2FBF0F0A1FB00519D4A96
:100C30000023284602F0E8F9974948651E219848A4
:100C40000268601CB2FBF0F0A1FB00500146954A1F
:100C50000023284602F0D8F98F4988656420FFF701
:100C6000BBFD40F283108C4908620A20FFF7B4FDF7
:100C700040F20310884908620120FFF7ADFD40F201
:100C80008310854908620120FFF7A6FDC82184482A
:100C90000268601CB2FBF0F0A1FB00700146814AC3
:100CA0000023384602F0B0F905461022002302F076
:100CB000ABF9401C784948624FF00A00FFF78CFD01
:100CC00043F6095176480268601CB2FBF0F0A1FBC4
:100CD00000500146734A0023284602F095F9074662
:100CE0001022002302F090F9401C6B4948624FF03B
:100CF0000A00FFF771FD8320674908626C480068AD
:100D00000A20FFF769FD0220634908620846D0F80F
:100D1000000140F40020C1F8000105B0BDE8F083F7
:100D200030B502466348406920F40000614D6861B7
:100D300040F2FF1000EB026068612846406940F411
:100D4000000068610BE05B484069C0F34D215948E1
:100D50004069C0F3080311B90BB9002030BD5548F4
:100D6000406900F400000028EDD152484069C0F30A
:100D70004D2145F6BB3001FB00F42046EEE702466C
:100D80004FF0FF33112A44D2DFE802F00E090A0BBC
:100D90000C4319232629434334373A3D400000BF12
:100DA00000BF00BF104670474348406800F00A008B
:100DB000022802D04FF0FF30F5E70020F3E73D486E
:100DC000806900F0010010B14FF0FF30EBE7062022
:100DD000E9E73848016A1EE03648016B1BE03548F8
:100DE000006C00F0010010B13248406C00E00020BF
:100DF000014610E02F48816C0DE02E48C16C0AE0DE
:100E00002C48016D07E02B48416D04E02948816DB5
:100E100001E01846C7E700BF01F0010008B9C1F3BF
:100E200004631846BFE72DE9F04780464FF00109FB
:100E300001240026474600BF112F5DD2DFE807F0EE
:100E4000090C0E10125C145051525C5C161D2442A9
:100E500049004FF4004652E0184E50E0184E4EE064
:100E6000174E4CE0154E4AE0144E48E01148806C95
:100E7000C0F38100401C444341E00E48C06CC0F305
:100E80008300401C44433AE00A48006DC0F38300ED
:100E9000401C444333E0000000500040105200402A
:100EA0000065001000CA9A3B00520040005100400B
:100EB000002003280000054000300440001BB7005C
:100EC00080F0FA023448406DC0F38300401C444374
:100ED00015E03148806DC0F38700401C44430EE0AC
:100EE0000DE00CE000F036F80546E8B209FB00F929
:100EF000C5F30720444302E00020BDE8F08700BFAF
:100F00001EB93846FFF73BFF0746002E94D006FB7C
:100F100009F0B0FBF4F0F0E710B51F48C06EC0F365
:100F200004642046FFF77FFF1C49086010BD10B520
:100F30004FF0E020006920F003004FF0E02108614D
:100F400017486FF3130017490860FFF781FBFFF79D
:100F5000E3FF10BD30B51048416CC1F30130421CB5
:100F6000C1F30740441CC1F30125012000FA05F339
:100F700001F0020028B101F0800050B15800424356
:100F800007E001F0800020B901F0400008B95800E6
:100F9000424344EA022030BD0000054000650010D5
:100FA0000005001008ED00E0F0B5074DD618C701A8
:100FB0004FF0040C0CFB0174E71704EB9777BF109C
:100FC00045F82760F0BD00000060084010B50146FC
:100FD000102221B1012905D0022907D104E04FF0E8
:100FE000FF3010BD6220FCE74220FAE70B4608E024
:100FF00082EA920000F00100C2F3430444EA0012C6
:101000005B1C202BF4D91046EBE710B5024680217B
:1010100022B1012A05D0022A09D105E04FF0FF30A4
:1010200010BD40F20230FBE740F20220F8E7134621
:101030000CE081EA910080EAD10080EA111000F012
:101040000100C1F3460444EAC0115B1CB3F5807F84
:10105000EFD90846E4E710B501464FF4804221B1CC
:10106000012905D0022907D104E04FF0FF3010BD5F
:10107000FE48FCE7FE48FAE70B4608E082EA520029
:1010800000F00100C2F34D0444EA80325B1CB3F56A
:10109000004FF3D91046EAE70146B1F5804F01D978
:1010A00001207047B1F5005F01D90220F9E7B1F5E1
:1010B000006F01D90420F4E7B1F5FA7F01D90820C7
:1010C000EFE73C2907D301F109004FF48062B2FB3E
:1010D000F0F08000E5E701F03C00001DE1E701468B
:1010E0003C2902D24808401C70471F20FCE72DE92C
:1010F000FF4F9DB00F462A9C1D9802F03EF9CDE9A6
:101100001A01384602F039F9CDE918010020139090
:10111000401E0F9000200E900D900C9000210A911F
:101120000B911F9802F04FF90022D24BCDE9060136
:1011300002F05CF909D31F9802F045F90022CE4B6A
:10114000CDE9060102F06AF903D2012021B0BDE821
:10115000F08F209802F037F90022C74BCDE9060145
:1011600002F044F909D3209802F02DF90022C34B74
:10117000CDE9060102F052F901D20220E6E7C049AA
:101180001D98884201D20320E0E7BE491D98B1EBCB
:10119000102F01D20420D9E7BB48874201D2052095
:1011A000D4E7BA48874201D90620CFE7B84887423A
:1011B00001D901200CE04FF04040B649DDE9182389
:1011C00002F06CF8CDE9060102F0E4F820F001002D
:1011D00008900898402801D9402008904FF04040DE
:1011E000AD49DDE9182302F059F8AC4AA24BDB1EE9
:1011F000CDE9040101F039FFCDE9060102F0CAF89A
:101200000990099808B901200990DDF82080E7E0ED
:101210000022A34BDDE91A0102F040F89F4A964BE9
:10122000DB1ECDE9040101F020FFCDE9060102F04B
:10123000B1F81390BBE0139802F09FF802460B46FA
:10124000CDE90601DDE91A0102F028F8CDE9160121
:1012500000204FF08041DDE9162301F0ADFFCDE91C
:101260000401404602F089F8CDE90001DDE91823C8
:1012700001F0A2FFCDE90201DDE9042302F00EF83E
:10128000CDE9060102F086F84000129086E012983F
:1012900002F073F8CDE90601DDE9162301F08CFFB9
:1012A00005460E464FF040427A4B2846314602F042
:1012B000B5F800D277E0B8F1010F02D128463146E7
:1012C0000AE0404602F059F802460B46CDE9060115
:1012D0002846314601F0E2FF81468A46484651469B
:1012E000DDE9182301F0DAFFCDE914011F9802F0BF
:1012F0006AF8CDE90601DDE9142302F077F842D857
:10130000209802F060F8CDE90601DDE9142302F02F
:1013100085F838D80022574B4846514601F0A5FEC3
:10132000CDE9060102F036F811901198874202D2F9
:101330001198C01B01E01198381A1090DDE90F10C8
:10134000884212D3DDE90F1088421CD10E99139800
:1013500088420AD30E991398884214D12846314600
:10136000DDE90A2302F042F80DD210980F9013988D
:101370000E9012980D90CDF83080CDE90A56119854
:10138000B84200D136E048465146DDE9182302F064
:1013900045F800D207E01298801C12901298B0F520
:1013A000803F7FF674AF00BF1398401C1390344900
:1013B0001D98B0FBF1F0FF2803D81D98B0FBF1F0A9
:1013C00001E04FF4807013998842BFF434AFB8F154
:1013D000020F01D9012000E00020401CA8EB00080A
:1013E00009988045BFF414AF0F98401C08B9072036
:1013F000ACE600BF0E9801F0C0FF02460B46CDE9F7
:101400000601DDE91A0101F049FFCDE916010D9849
:1014100001F0B3FFCDE90601DDE9162301F0CCFEB2
:1014200005460E460C9801F0A8FF02460B46CDE992
:1014300006012846314601F031FF81468A460D9962
:101440004808FFF729FE82050D994808FFF747FE77
:1014500042EA404B0D994808FFF7FDFD4BEA000BAF
:10146000C4F808B00C9801281FD11BE003800100CC
:10147000030001000000E03F0000F03F0000F83FE3
:10148000A086010080D1F008AB9041008055C820B3
:10149000C02A64102A64C0412A64B041E90B21E7E4
:1014A000A3E1A1414FF0000B04E00C994808FFF7BD
:1014B0008DFD83460E98012801D1002002E00E9890
:1014C000FFF7A3FD4BEA0030E0600C98012801D142
:1014D000082000E000200E99012901D1042100E03C
:1014E0000021084346F21001084420600D9841088D
:1014F000B4F8110061F30E0004F11001A4F811001A
:101500000E9820740C98012800D101E00C98400836
:10151000618A60F3CB1161820022FE4B284631467E
:1015200001F0A3FDCDE9060101F034FF6061002266
:10153000F84B4846514601F098FDCDE9060101F00F
:1015400029FFA061A069C01BE06148465146DDE962
:101550001A2301F0A3FEC4E908010020F6E52DE9F5
:10156000F04104460F46F4B95FB1EB48406820F003
:101570000C00E94948600846406840F003004860B4
:101580000AE0E548406820F00300E3494860084667
:10159000406840F008004860002600E0761CDF4804
:1015A0008642FBDB64E0022C06D1032310220021DB
:1015B0000C20FFF7F9FC5BE0032C06D1002310227E
:1015C00013210120FFF7F0FC52E0042C50D0052C31
:1015D0004ED0062C14D137B9D148806940F00100B3
:1015E000CF49886105E0CE48806920F00100CC49F0
:1015F0008861002600E0761CC8488642FBDB37E0A5
:10160000C84830F91450681C10B90220BDE8F081B8
:1016100037B9C348285840F00100C149685027E055
:10162000BF48285820F00100BD496850072C06D15A
:1016300000BFBB48C06900F001000028F9D0082CA9
:1016400006D100BFB648C06A00F001000028F9D0FA
:10165000092C0DD100BFB248006C00F00100002839
:10166000F9D0AF48006C00F0010008B900BFFEE7F8
:101670000020CBE70146AC48814206D2A8488069E9
:1016800020F00400A64A90610BE0A848814206D2EF
:10169000A348806940F00400A14A906101E0052060
:1016A0007047A34881610020FAE710B5A148FFF711
:1016B000E1FF01210620FFF752FF002010BD014687
:1016C000A1F1110014284DD2DFE800F04B1E4C238D
:1016D00019144C4C4C0F0A4C4C46413C37322D28C7
:1016E0009548406800F00100704793484068C0F397
:1016F0004000F9E790484068C0F38000F4E78E4866
:101700004068C0F3C000EFE78B484068C0F3C010EA
:10171000EAE789484068C0F30020E5E78748406869
:10172000C0F34000E0E785484068C0F38000DBE795
:1017300082484068C0F3C000D6E780484068C0F3E4
:101740000010D1E77D484068C0F34010CCE77B48EB
:101750004068C0F38010C7E778484068C0F3C01005
:10176000C2E700E000BF00BF0020BDE770B504463F
:101770000D46262C03DB002C01DC042070BD002D5F
:101780007ED104EB84006E4901EB4000408850B3E9
:1017900004EB840001EB4000408861490844007973
:1017A00000F00100F8B104EB8400654901EB400052
:1017B00040885B49405820F0010004EB8401604AF6
:1017C00002EB41014988564A885000BF04EB84006F
:1017D0005B4901EB4000408851490844007900F022
:1017E00001000028F2D104EB8400554911F81000E3
:1017F0002D280FD004EB8401514A12F81100FFF795
:101800005EFF38B904EB84014D4A12F81100002143
:10181000FFF7A5FE04EB8400494901EB4000C088B6
:1018200050B304EB840001EB4000C0883C490844FD
:10183000007900F00100F8B104EB8400404901EBAD
:101840004000C0883649405820F0010004EB840174
:101850003B4A02EB4101C988314A885000BF04EB82
:101860008400374901EB4000C0882D4908440079C5
:1018700000F001000028F2D104EB8400304900E0C0
:1018800018E001EB400000792D2812D004EB840110
:101890002B4A02EB41010879FFF711FF002808D11C
:1018A00004EB8401264A02EB410108790021FFF78D
:1018B00056FEB7E004EB8400214911F810002D28F2
:1018C00013D004EB840011F81000164931F9100010
:1018D0001349405C00F0010038B104EB8401184A60
:1018E00012F811000121FFF73AFE04EB84001449BD
:1018F00001EB40004088E8B304EB840001EB4000BA
:10190000408807490844007900F0010090BB04EBCF
:10191000840017E00000E03F0030044040420F0028
:1019200000000540C0350010C0E1E40040787D01B2
:1019300004650010001BB7000010054000200540A2
:1019400018390010F74901EB40004088F64940582B
:1019500040F0010004EB8401F24A02EB41014988A6
:10196000F14A885000BF04EB8400EE4901EB4000CF
:10197000408800E006E0EC490844007900F00100EE
:101980000028F0D004EB8400E64901EB4000007928
:101990002D2815D004EB840001EB40000079E349C9
:1019A00031F91000E049405C00F0010040B104EB67
:1019B0008401DC4A02EB410108790121FFF7CFFDE8
:1019C00004EB8400D74901EB4000C08850B304EB1E
:1019D000840001EB4000C088D3490844007900F03E
:1019E0000100F8B904EB8400CE4901EB4000C08847
:1019F000CD49405840F0010004EB8401C94A02EB94
:101A00004101C988C84A885000BF04EB8400C54919
:101A100001EB4000C088C4490844007900F001008F
:101A20000028F2D004EB8400BE4901EB4000007AAC
:101A300048B104EB8401BB4A02EB4101087A294614
:101A4000FFF794FE9AE6002098E610B50146262995
:101A500003DB002901DC042010BD01EB8100B14C47
:101A600004EB400000792D2830D001EB810004EB1D
:101A700040000079AD4C34F91000AB4C0059C0F374
:101A8000036301EB8100A74C04EB40000079A74CF5
:101A900034F91000A44C005D00F0010008B10020F2
:101AA000DAE701EB81009F4C04EB4000C0889E4CBC
:101AB0002044426801EB81009A4C04EB4000C0884E
:101AC000A0B302F0010088BB0020C5E701EB810054
:101AD000944C14F81000954C34F91000924C005DB1
:101AE00000F0010008B10020B6E701EB81008D4C49
:101AF00014F810008D4C34F910008B4C0059C0F3D1
:101B0000036301EB8100874C04EB40004088864C66
:101B10002044426801EB8100824C04EB4000408885
:101B200020B102F0010008B9002095E7FFE78048E6
:101B300050F8230090E770B57E4D6D6805F0020502
:101B40005DB17C4D6D6805F0080585F0080525B18F
:101B50004FF40045764E356002E00025744E356046
:101B6000714D2D6A05F0020585F002054DB16E4DEF
:101B7000ED6905F0010525B16F4D2D686C4EF561DD
:101B800002E000256A4EF561674D2D6B05F00205F8
:101B900085F002054DB1644DED6A05F0010525B1F2
:101BA000664D2D68624E356202E00025604E35625A
:101BB0005D4D6D6C05F0020585F00205A5B15A4D2D
:101BC0002D6C05F001057DB1574D6D6CC5F30362B9
:101BD000574D55F82250544E766CC6F30746761C86
:101BE0007543534E756202E00025514E75620C201C
:101BF00020E04E4D35F910104B4D4C5904F00205C4
:101C000085F002058DB1484D4D59C5F30362464D2F
:101C10004D5BC5F387035B1C454D55F82250B5FB62
:101C2000F3F5434E46F8205003E00025404E46F8B9
:101C30002050401C1028DCD970BD10B502460C465F
:101C40000C2A14DB102A12DC384830F91210481C18
:101C500008B9022010BD34480B5823F47F73601E6E
:101C6000C0B243EA800330480B500020F2E7022064
:101C7000F0E730B50346102B01DD032030BD072906
:101C80002FDB25292DDCC3EB031000EB40002C4D8E
:101C90002844405C18B3254830F91320501C58B133
:101CA000102909DC072907DB1F481058C0F303601F
:101CB000884201D10120E1E71C4830F91120501C75
:101CC00008B90220DAE71848145824F07064C014E8
:101CD00040EA03600443144814500020CEE7032078
:101CE000CCE70220CAE72DE9F0418CB006460D464C
:101CF0001746984600201049086002A843463A4615
:101D0000294600903046FFF7F2F904462CB1072C23
:101D100003D204200CB0BDE8F081072C12D10620BC
:101D2000F8E700001839001000000540C035001029
:101D30000465001000300440486500104C65001038
:101D40001A3600107D4805607D4904984862059860
:101D50008862029808620020DCE72DE9F0418CB02F
:101D600006460D461746984600207649086002A8A8
:101D700043463A46294600903046FFF7B8F90446F4
:101D80002CB1072C03D204200CB0BDE8F081072C45
:101D900001D10620F8E76B4805606949049848635B
:101DA00005988863029840F4005008630020EBE730
:101DB000F0B5024600240025002301266048406C4F
:101DC000C0F30367604850F827105143541E5C4825
:101DD000406CDFF878C100EA0C00DFF864C1CCF891
:101DE00044005B4881421AD201E05B1C760070001F
:101DF0004843DFF85CC16045F7D3200440EA053072
:101E000040EA032040F04000DFF834C1DCF844C071
:101E100040EA0C00DFF828C1CCF8440016E04D4839
:101E2000814211D2200440EA053040EA032040F00C
:101E3000C000DFF80CC1DCF844C040EA0C00DFF859
:101E400000C1CCF8440001E00420F0BD0020FCE714
:101E5000F0B504460D46164640F2FF114FF400005F
:101E600040EA04600843DFF8D8C0CCF8140000BF93
:101E70003348406900F400000028F9D1002300E055
:101E80005B1C42F210708342FADB2D484069C0F3BC
:101E90004D2212B94FF0FF30F0BDB2F5007F08D3EC
:101EA00027484069C0F3080040F2FF1CACEB00017A
:101EB0001FE000BF491E4FF4000040EA04600843E1
:101EC000DFF87CC0CCF8140000BF1D48406900F466
:101ED00000000028F9D1002300E05B1C42F21070E2
:101EE0008342FADB16484069C0F34D279742E1D0A0
:101EF000491C2A6031600020CEE7FFB505460C463C
:101F000016461F46102D01DC102C02DD042004B003
:101F1000F0BD01AA03A92846FFF79AFF6A4602A965
:101F20002046FFF795FF0099039848433060DDE9AC
:101F30000101484338600020E9E7000048650010CF
:101F4000000005404C650010046500103DCC00FF0A
:101F5000005F4C0900D012132DE9F04F8BB00446FE
:101F6000884600200990FD48844203D12020FFF7D5
:101F70006CFD8146FA48844203D12120FFF765FDBC
:101F80008146F848844203D12220FFF75EFD814656
:101F9000F548844203D12320FFF757FD81464FF0D7
:101FA000FF3B00200790069000252E4601274CE0BD
:101FB0000020089040E00898384400FB08FC00200E
:101FC000010741EA19114FEA09700022A0FB073E00
:101FD00001FB07E100FB02106246CDE9003000235F
:101FE000DDE9000101F010F8CDE904010498039047
:101FF000DDF814A00398B0F1004F04D903984042D3
:1020000003900AF1010ABAF1000F02D0BAF5803F3D
:1020100000D90EE0039858450AD2DDF80CB000262E
:102020005546089807900697BBF1000F00D106E0CF
:1020300000BF0898401C08900898B842BBD300BF66
:10204000BBF1000F00D102E07F1C0F2FB0D900BF01
:10205000002185EA01007140084302D10BB0BDE8C0
:10206000F08F4FEA1910069900FB01FC084607990A
:1020700008440021A0FB052301FB053100FB0610ED
:102080000346CDE900206046002100F0BDFF02902C
:102090000298804503D90298A8EB000B02E0029851
:1020A000A0EB080B64200BFB00F0B0FBF8FBBBF1CE
:1020B000030F35D2AA48844218D1E06840F080006E
:1020C000E060280A40EA0660C0B26060E8B22060C2
:1020D000E06800F07F00E060F021069801EA00105F
:1020E000079901F00F010843A06217E0E06840F093
:1020F0008000E060280A40EA0660C0B26060E8B292
:102100002060E06800F07F00E060F021069801EABE
:102110000010079901F00F010843A0620120099007
:1021200009989BE770B504460E468C48844203D15B
:1021300021210120FFF79DFD8948844203D12221FE
:102140000120FFF796FD8748844203D12321012017
:10215000FFF78FFD8448844203D124210120FFF73B
:1021600088FD7F4884421ED10720A0600020A06027
:1021700000E02568606900F001000028F9D18020A6
:10218000206300BF606900F020000028FAD0002022
:1021900020636060E06020622061E064606520652B
:1021A000A569656915E00720A0600020A06000E037
:1021B0002568606900F001000028F9D1E0656060E1
:1021C000E06020622064A064A065E0646065206532
:1021D00065696548844201D100206062204631680B
:1021E000FFF7BAFE5E48844203D1E06800F0C00504
:1021F00002E0E06800F0C005707930B1012806D037
:10220000022807D0032808D108E000BF09E045F004
:10221000010506E045F0020503E000BF45F00305B7
:1022200000BF00BF3079C0B145F008053079012802
:1022300006D0022806D0032807D004280BD107E0D7
:1022400000BF09E045F0100506E045F0200503E079
:1022500045F0300500E000BF00BFB07928B101288B
:1022600002D145F0040501E000BF00BF00BF3C48BB
:10227000844202D1E8B2E06001E0E8B2E06070BD03
:1022800001290CD1364A904204D1026B42F08002FF
:1022900002630EE0C26D42F00102C26509E0304AFD
:1022A000904203D1026B0022026302E0C26D002261
:1022B000C265704700B5034600211846FFF7E0FFEE
:1022C00000BD4FF4165101600321417100210171DD
:1022D00081717047224A904202D1CAB2026001E085
:1022E000CAB20260704701461D48814202D10868A7
:1022F000C0B270470868C0B2FBE72DE9F04F07464F
:10230000894692469B464E465346BBF1010F2DD15E
:1023100000241FE04FF0FF3805E0B8F1000F00D1B6
:1023200006E0A8F10108786900F020000028F4D048
:1023300000BFB8F1000F00D10EE0102507E016F83D
:10234000011B3846FFF7C6FF6D1E5B1E641C0DB1F6
:10235000002BF4D1002BDDD11FE00000001008405D
:102360000020084000100C4000200C40002411E028
:10237000786900F0200000B90EE0102507E016F89B
:10238000011B3846FFF7A6FF5B1E6D1E641C0DB1D6
:10239000002BF4D1002BEBD100BF2046BDE8F08F1D
:1023A0002DE9F04305460F46904699463C46434684
:1023B000B9F1010F19D1002214E04FF0FF3602E00D
:1023C00006B905E0761E686900F001000028F7D024
:1023D00000BF06B908E02846FFF785FF04F8010BA7
:1023E0005B1E521C002BE8D110E000220BE0686954
:1023F00000F0010000B908E02846FFF774FF04F878
:10240000010B521C5B1E002BF1D100BF1046BDE832
:10241000F083F849884204D1C16841F04001C160AD
:1024200003E0C16841F04001C160704730B50B4620
:10243000072B15D2DFE803F00406080A0C0E110082
:1024400001210DE002210BE0042109E0082107E051
:10245000802105E04FF4807102E04FF4007100BF6D
:1024600000BF012A0AD1E34CA04203D144680C43C7
:10247000446013E044680C4344600FE0DD4CA0422C
:1024800006D1446840F28F358D432C40446005E00E
:10249000446840F207358D432C40446030BD01460E
:1024A000D448814202D14069C0B270474869C0B285
:1024B000FBE70146486900F0400008B10020704782
:1024C0000120FCE70246002040F00100CB7833B148
:1024D000012B06D0022B07D0032B08D108E000BF48
:1024E00009E040F0400006E040F0800003E000BF5B
:1024F00040F0C00000BF00BF4B78012B01D140F07D
:1025000004000B78012B01D140F002008B78012BE5
:1025100001D140F00800B74B9A4203D100F0CF033D
:10252000936002E000F0CF03936070470021817058
:10253000C170012101704170704710B50B46002138
:10254000012A09D11C78012C01D141F002015C78EB
:10255000012C01D141F00401A64CA04215D1012A61
:1025600010D1C46844F08004C46000240460446056
:10257000C46824F08004C4601024846241F0010423
:10258000046217E00024046214E0012A10D1C46838
:1025900044F08004C460002404604460C46824F0F3
:1025A0008004C4601024846241F00104046201E0EC
:1025B0000024046210BD012904D1426A42F00202E3
:1025C000426204E019B9426A02F03D024262704779
:1025D000012904D1426A42F00102426203E0426AE8
:1025E00002F03E024262704710B54C07A30E446AE7
:1025F00024F0380243F00404224302F03F04446212
:1026000010BD30B5002311B1012904D101E001232F
:1026100002E0022300E000BF00BF012A03D10469E9
:102620001C43046104E00469F3259D432C400461CC
:1026300030BD30B50B4623B1012B04D0022B06D19F
:1026400003E0102104E0402102E0802100E000BF0F
:1026500000BF012A03D104690C43046104E004694A
:10266000F3258D432C40046130BD01468869C0B21A
:1026700070470022CB78012B13D142F010024B7926
:10268000012B01D142F020020B79012B01D142F044
:102690000802584B984202D1CB79436501E0CB79CF
:1026A00043650B78012B01D142F001028B78012B9D
:1026B00009D142F004024F4B984202D18B79036555
:1026C00001E08B7903654B780BB942F00202494B6C
:1026D000984203D102F03F03C36402E002F03F03DB
:1026E000C364444B984204D1C36843F03803C360C9
:1026F00003E0C36843F03803C36070473D4A90422B
:102700000BD1012904D1C26C22F00202C2640FE095
:10271000C26C42F00202C2640AE0012904D1C26C18
:1027200022F00202C26403E0C26C42F00202C26400
:1027300070472DE9F04704468946924698462D4851
:10274000844225D1B8F1000F14D0E068C5B22F46FD
:1027500027F01007E7600123524649462046FFF75D
:10276000CCFD064600BF606900F040000028FAD0AA
:10277000E56032E00123524649462046FFF7BDFDA1
:10278000064600BF606900F040000028FAD024E04F
:10279000B8F1000F14D0E068C5B22F4627F010073B
:1027A000E7600123524649462046FFF7A6FD06464C
:1027B00000BF606900F040000028FAD0E5600CE03E
:1027C0000123524649462046FFF797FD064600BFC3
:1027D000606900F040000028FAD03046BDE8F0877C
:1027E00013B5044601231A4601A92046FFF7A1FFAD
:1027F0001CBD00000020084070B504460D4616467A
:102800000023324629462046FFF793FF70BD0000A3
:102810001F480088401C1E49088070471D481E49FB
:1028200008601E4908601E4800684FF47A72B0FBC9
:10283000F2F1B1F1807F00D31EE021F07F40401E15
:102840004FF0E022506150170722002808DA5307A2
:102850001D0E114B103300F00F04241F1D5503E013
:1028600053071C0E0F4B1C5400BF00204FF0E022FA
:1028700090610720106100BF602000F015F808B9D2
:1028800000BFFEE701E000F05BF8FCE7FFF7C6FFE2
:10289000506500100005001008ED00E00031044014
:1028A0000065001000E400E010B50446BA49C86AAB
:1028B00000F0BEF90020B9490860B9490860B6497E
:1028C0000869214600F099FA28B10921B5A000F065
:1028D000E1F9002010BD0C21B5A000F0DBF90120CA
:1028E000F8E70146B64802888A4207DB501AB0F57D
:1028F000004F01DA012070470020FCE7881AB0F58C
:10290000004F01DB0120F6E70020F4E72DE9F0415C
:1029100006460F4690460025344604E0204600F067
:1029200057FB0544641CBC42F8D96D42454502D0B2
:102930000020BDE8F0810120FBE7A1480088704736
:1029400070B54FF496719F4800F0AEF90546002D22
:1029500072D0FFF7F2FF9C49088000240AE18F48FB
:10296000006810B101280BD197E09648005D3F2820
:1029700007D18B48006820B90C218DA000F08AF99E
:10298000F6E09048015D864802680068401C844B70
:1029900018608E4881541846006810287CD18B48F6
:1029A000007820B101283FD0022870D14DE087483F
:1029B00040788649897840EA012085490860764850
:1029C000806A096848438249086080488079000627
:1029D0007E49497940EA01407C49097940EA012071
:1029E0007A49C97808437B4908607848807A0006AC
:1029F0007649497A40EA01407449097A40EA01205F
:102A00007249C97908437449086001206349086024
:102A100000207249086072490860724908606E4877
:102A200000687149086036E000F063FA28B10721B8
:102A30006EA000F02FF904E0A0E004216DA000F0EA
:102A400029F900205649086025E060480079000611
:102A50005E49C97840EA01405C49897840EA012032
:102A60005A49497840EA0106304600F060FA20B140
:102A700007215EA000F00EF903E004215DA000F044
:102A800009F900204649086005E005E0FFE700205D
:102A90004349086000BF00BF6AE04A48005D5149F1
:102AA000096808444F4908604648015D4C4802687F
:102AB0000068401C4A4B1860504881543648806A70
:102AC0001946096888421FD14C4A18460168464891
:102AD000006800F04CFA70B9082149A000F0DAF85B
:102AE000414800683E49096808443F4908600020A1
:102AF0003B49086008E0092144A000F0CBF8002021
:102B0000264908602649086034480068401C33495B
:102B10000860084600682E490968884227D1314874
:102B2000006840422F490860084600682949096842
:102B3000884204D00A2138A000F0ACF812E02A48FC
:102B40000068411E2748026823480068FFF7DEFE40
:102B500020B9082133A000F09DF803E0042125A04E
:102B600000F098F800200D4908600D49086000BF8A
:102B700000BF641CAC42FFF4F2AE0CE012490988BD
:102B800001F57A7188B2FFF7ACFE20B1002003494D
:102B900008600349086070BDB83A00105465001021
:102BA00058650010494E49544552520D0A00000024
:102BB000455341464C4153484F530D0A0000000015
:102BC000506500107C6500105C650010A86A00105C
:102BD0007465001078650010706500106065001065
:102BE000646500106C650010686500104552524F16
:102BF000520D0A004F4B0D0A00000000A86600109D
:102C000050524F474F4B0D0A0000000050524F47A3
:102C10004552520D0A000000434845434B53554D61
:102C20000D0A00005645524946590D0A00000000A1
:102C30003EB504460123102200210220FEF7B4F91C
:102C40000123D02219460220FEF7AEF901201B49CC
:102C5000086000208DF803008DF800008DF8010059
:102C60008DF8020069461648FFF72CFC4FF46140CE
:102C7000019003208DF8090000208DF808008DF8E0
:102C80000A0001A90E48FFF74DFA01210C48FFF791
:102C9000F7FA3EBD70B504460D4601232A4621468B
:102CA0000748FFF72AFB70BD70B504460D460023A8
:102CB0002A4621460248FFF773FB70BD0815054000
:102CC0000010084010B50346012B02D0022B04D19E
:102CD00001E0052203E0352201E0002010BD00BF25
:102CE000012141F4001141EA0261C348416000BF83
:102CF000C148C06900F002000028F9D1BE48047D37
:102D00002046EBE71020BC49C86100BFBA48C06943
:102D100000F010000028F9D1704710B5002444F4E9
:102D2000001444F0C064B448446000BFB248C069B5
:102D300000F002000028F9D100BF0120FFF7C2FF18
:102D400000F002000228F8D1012010BD70B5054640
:102D50000E46022444F4004444F4001444F0807409
:102D6000A54844600575067500BFA348C06900F01A
:102D700002000028F9D100BF0120FFF7A3FF00F0F7
:102D800001000028F8D1012070BD38B50220FFF7FE
:102D900099FF00F0800008B1002038BD00BF01207D
:102DA000FFF790FF00F001000028F8D1002444F460
:102DB000001444F0CC449048446000BF8E48C06981
:102DC00000F002000028F9D1002444F4001444F07B
:102DD00019448948446000BF8748C06900F0020078
:102DE0000028F9D1009002E00098401C0090009863
:102DF000B0F57A7FF8DB0120CFE72DE9F05F82465E
:102E00008B46F3207D490860D3207D49C1F89C01A1
:102E10007A490C310860091F0860091F08601320F7
:102E2000764914310860FFF76DFF00207249C860D1
:102E30008861FFF767FF734E46F000566E480660E4
:102E4000FFF7A3FF10B90120BDE8F09F032444F46D
:102E5000001444F01F446848446000BF6648C069DD
:102E600000F002000028F9D16348057D077D90F845
:102E70001480C82D01D00120E6E7022444F40004A8
:102E800044F0104400205C4988600846446000BF5C
:102E90005948C06900F002000028F9D15648057D64
:102EA00090F81490C82D01D00120CDE7FFF735FF31
:102EB00008B90120C8E7002444F4001444F0A044F9
:102EC0004D48446000BF4C48C06900F00200002833
:102ED000F9D10221FFF73AFF08B90120B4E7022037
:102EE000FFF7F0FE00F0020008B90120ACE7002077
:102EF000AAE710B5FFF711FF08B9012010BD0024A3
:102F000044F4001444F0C0443B48446000BF3A48D5
:102F1000C06900F002000028F9D100BF0120FFF7CE
:102F2000D1FE00F001000028F8D100BFE6E770B53F
:102F30000546FFF7F2FE08B9012070BD2E488560F6
:102F4000002444F4000444F05844446000BF2A487C
:102F5000C06900F002000028F9D100BF0120FFF78E
:102F6000B1FE00F001000028F8D100BFE5E72DE92F
:102F7000F04107460D469046FFF7CFFE10B90120FD
:102F8000BDE8F0811C4887602C4644F4004444F4BA
:102F9000000444F0485444F400244460002604E053
:102FA00018F8060014490875761CAE42F8D300BF25
:102FB0001148C06900F002000028F9D100BF0120CB
:102FC000FFF780FE00F001000028F8D100BFD7E72E
:102FD0000246094B9A60012141F4000141F0407121
:102FE000596000BF044BDB6903F00203002BF9D1E9
:102FF000014B187D70470000003000408C61084094
:1030000000600840FFFF0F402DE9F05F05460020FB
:1030100092469B4688460646814640241BE0284649
:1030200041464746224600F020FA53465A46C01A07
:10303000914110D311461846224600F007FA2D1A86
:1030400067EB01084F4622460120002100F0FEF9FF
:1030500017EB00094E41201EA4F10104DFDC4846B5
:1030600031462A464346BDE8F09F2DE9FE4F804693
:1030700081EA0300C00F0C46009021F0004123F0CC
:103080000045B8EB0200A94105D2404621469046D2
:103090001C460B46024623F00040104347D0270D44
:1030A000C7F30A00C3F30A510290401A0190402866
:1030B0006BDAC3F3130040F4801B0098924620B1F2
:1030C0000023D2EB030A63EB0B0B01985946C0F1C6
:1030D0004002504600F0BAF906460D4650465946A1
:1030E000019A00F0D2F910EB08006141002487EA50
:1030F000115284EAE7731A4340D0009A62B3019AEE
:10310000012A4FEA075215DC001B61EB02014FF068
:10311000004202EA0752CDE90042001C41F580114D
:1031200032462B4600F0D2F903B0BDE8F08F40469E
:103130002146F9E7001B61EB0201001C41F58013F9
:1031400000185B412018A2F5001747EB030140EA85
:10315000D570B6196D4111E06D084FEA360645EAA3
:10316000C0754FEA0752001B61EB0201001C41F5DC
:10317000801149084FEA30000019514132462B4670
:1031800003B0BDE8F04F00F092B900980122400072
:103190000023D0EB020263EBE073009821464FEA74
:1031A000E074B8EB000061EB0401E9E783F0004351
:1031B0005BE781F0004158E72DE9FE4F81EA030407
:1031C00004F0004421F0004100944FF0000B23F084
:1031D000004350EA01045ED052EA03045BD0C3F31B
:1031E0000A54C1F30A552C44A4F2F3340194A0FB11
:1031F0000254C1F3130141F48011C3F3130343F4E8
:10320000801301FB024400FB034E840A970A44EA40
:10321000815447EA8357A4FB076802958D0A05FB92
:1032200007854FEA932C04FB0C542705029D4FEAB7
:10323000065847EA1637B5EB08056EEB070C870E04
:10324000920E47EA811742EA8312A7FB0201B6EB0E
:103250000B0164EB00042B0D43EA0C335E1844EBC6
:103260001C50DA465146E7FB0201C5F313044FEA4E
:103270000B3343EA14534FEA0432019C43EA06033A
:10328000A4F10C040294009CCDE900B400F01EF9F6
:1032900003B0BDE8F08F00200146F9E72DE9F04DBD
:1032A00081EA030404F0004B21F0004514464FF07E
:1032B000000A23F0004150EA050220D054EA01023E
:1032C0001DD0C5F30A570246C5F31303C1F313001B
:1032D000C1F30A5640F4801543F48013A7EB0608A7
:1032E000101BD64608F2FD3873EB050002D308F137
:1032F000010801E092185B41B8F1000F03DA0020E9
:103300000146BDE8F08D00204FF48011064684464A
:103310000EE0171B73EB050705D3121B63EB0503C8
:1033200006434CEA010C49084FEA300092185B4111
:1033300050EA0107EDD152EA030012D082EA0400FC
:1033400083EA0501084305D0101BAB4106D20122D8
:10335000002306E000224FF0004302E06FF001027C
:1033600053101AEB06004CEB085110EB0A0041EB2E
:103370000B01BDE8F04D00F09AB80EB540F23341B4
:1033800002910021CDE900110A460B4600F09EF89B
:1033900003B000BDC1F30A5210B5C1F3130140F2EE
:1033A000FF3341F480119A4201DA002010BD40F24F
:1033B00033439A42A2F2334203DC524200F055F802
:1033C00010BD904010BD00F0004230F000400AD027
:1033D000C10D01F56071C0F3160042EA0151C20847
:1033E00040071143704700200146704730B5041E66
:1033F00071F1000404DB4FF00044404264EB010132
:10340000141E73F1000405DB1C464FF000435242CA
:1034100063EB04038B4208BF824230BD30B5041E0B
:1034200071F1000404DB4FF00044404264EB010101
:10343000141E73F1000405DB1C464FF0004352429A
:1034400063EB0403994208BF904230BD202A04DB9D
:10345000203A00FA02F1002070479140C2F12003A7
:1034600020FA03F3194390407047202A04DB203AE6
:1034700021FA02F00021704721FA02F3D040C2F194
:1034800020029140084319467047202A06DBCB17DB
:10349000203A41FA02F043EAE07306E041FA02F30F
:1034A000D040C2F12002914008431946704710B540
:1034B000141E73F1000408DA401C41F10001921857
:1034C0005B411A4301D120F0010010BD2DE9F04D00
:1034D00092469B4611B1B1FA81F202E0B0FA80F255
:1034E00020329046FFF7B2FF04460F4640EA0A003A
:1034F00041EA0B0153465A46084313D0114653EA9A
:10350000010019D0C8F140025046FFF7AEFF054652
:103510000E46504659464246FFF798FF084305D0ED
:10352000012004E020463946BDE8F08D0020054327
:1035300046EAE0762C4337430A986305E40AA0EB99
:1035400008000022FD0A44EA47540A3002D5002050
:103550000146E9E7010510196941DDE9084500194F
:103560006941BDE8F04DA2E7064C074D06E0E06872
:1035700040F0010394E8070098471034AC42F6D3BA
:10358000FDF74CF8003D0010203D001002E008C897
:10359000121F08C1002AFAD170477047002001E0CD
:1035A00001C1121F002AFBD17047036843F4803326
:1035B00003600A604B68DB07FCD070470000000026
:1035C000FFFFFFFFFFFFFFFFFFFFFFFF18002000CF
:1035D00030004400FFFFFFFF48004C005000540043
:1035E00058005C006000FFFF68006C007000FFFF87
:1035F00078007C008000840088008C00900094009B
:1036000098009C00A000A400A800AC00FFFFFFFFF2
:10361000FFFFFFFFC000C400C80000000000000062
:103620000001010100000101010101000000010190
:10363000010001010101010101010101010101017B
:103640000000000001010100000000000000010175
:10365000010000010101010101000001010100015F
:10366000010101010101010101010101010000004D
:103670000001010100000000000000010101000044
:10368000010101010100000001010100010101012E
:10369000010101010101010101010000000001011E
:1036A0000100000000000000010101000001010113
:1036B00001010000000101010001010101010101FE
:1036C00001010101010101000000000101010000F0
:1036D00000000000000101010000010101010100E2
:1036E00000000101010001010101010101010101CD
:1036F00001010101000000000101010000000000C3
:1037000000000000000000000000000000000000B9
:1037100000000000000000000000000000000000A9
:103720000100000000000000000000000000000197
:10373000010100000101010101000000010101007F
:10374000010101010101010101010101010100006B
:103750000000010101000000000000000000010065
:103760000001000000000001000100000000000056
:103770000000000000000000000001000000000048
:103780000101000000000000000000010000010134
:10379000010101000000010101000101010101011D
:1037A000010101010101010100000000010101000E
:1037B0000000000000000101000000010101010102
:1037C00000000001010100010101010101010101ED
:1037D00001010101010000000001010100000000E1
:1037E00000000000000000000000000000000000D9
:1037F00000000000000000000000000000000000C9
:1038000000000000000000000000000000000000B8
:1038100000000000000000000000000000000000A8
:103820000000000000000000000000000000000098
:103830000000000000000000000000000001010185
:10384000000000010101010000000101010001016F
:10385000010101010101010101010101000000005C
:103860000101010000000000000001010100000052
:103870000000000000000001010100010101010140
:10388000010101010101010101000000000101012C
:103890000000000000000001010100000000000025
:1038A000000000000101010001010101010101010D
:1038B00001010101010100000000010101000000FF
:1038C00000000000010101000000000000000000F5
:1038D00000010101000101010101010101010101DA
:1038E00001010100000000010101000000000000D2
:1038F00000010101000000000000000000000101C3
:1039000001000101010101010101010101010101A8
:1039100000000000010101001B0018112D00000033
:1039200000001B0020112D00000000001500601495
:103930002D00000000001A0000122D000000000001
:103940001B0000112D00000000001B0028112D009D
:1039500000000000150038152D00000000001B00BD
:1039600010112D0000000000150040142D00000073
:103970000000150030141500781400001500201404
:10398000180000000B002D000000190000000000CE
:10399000150010142D00000000001A0010122D0058
:1039A000000000001B0008112D00000000001A009C
:1039B00018122D0000000000150018141C00000053
:1039C0000000150048142D00000000001500001430
:1039D0002D00000000001A0008122D000000000059
:1039E000150030162D0000000000150000162D00F7
:1039F00000000000150068142D00000000001500F4
:103A000030152D0000000000150038141E0000289D
:103A1000000015000814160000130000150018150A
:103A20001F000027000015002816200000260000B7
:103A3000150020152D0000000000150028152D0090
:103A400000000000150018162D00000000001500F1
:103A500020162D000000000015000815210000258B
:103A600000001500101522000024000015000816A3
:103A7000230000230000150010162400002200007F
:103A8000150028141200001800001500701414000E
:103A900000190000150000151100000000000000D2
:103AA00000000000A3E1A141000000C02A64C04161
:103AB000000000C02A64B0413D7F55AA0300000009
:103AC000010000000100000000000000FFFF0F00E7
:103AD00000050010FF7F001000000100FF00000043
:103AE0000001000000C201000100000000E1000030
:103AF0000000000000000000000000004C504331B6
:103B00003833330000000000000000000000000017
:103B100000000000000000000000000000000000A5
:103B20000000000000000000000000000000000095
:103B30000000000000000000000000004744323593
:103B400051383045204C5043313833780000000064
:103B50000000000000000000000000000000000065
:103B60000000000000000000000000000000000055
:103B700000000000000000000000000051756164BA
:103B8000205350494649000000000000000000009A
:103B90000000000000000000000000000000000025
:103BA0000000000000000000000000000000000015
:103BB0000000000000000000000000000000000005
:103BC00000000000000000000000000000000000F5
:103BD00000000000000000000000000000000000E5
:103BE00000000000000000000000000000000000D5
:103BF00000000000000000000000000000000000C5
:103C000000000000000000000000000000000000B4
:103C100000000000000000000000000000000000A4
:103C20000000000000000000000000000000000094
:103C30000000000000000000000000000000000084
:103C40000000000000000000000000000000000074
:103C50000000000000000000000000000000000064
:103C60000000000000000000000000000000000054
:103C70000000000000000000000000000000000044
:103C80000000000000000000000000000000000034
:103C90000000000000000000000000000000000024
:103CA0000000000000000000000000000000000014
:103CB0000000000000000000000000000000000004
:103CC00000000000000000000000000000000000F4
:103CD00000000000000000000000000000000000E4
:103CE00000000000000000000000000000000000D4
:103CF000000000000000000000000000AA557F3D09
:103D0000203D0010006500107C0000008C35001084
:103D10009C3D00107C6500103C0900009C350010A3
:103D20000095BA0A00000000001BB7000000000068
:103D30000000000000000000000000000000000083
:103D40000000000000000000000000000000000073
:103D50000000000000000000000000000000000063
:103D60000000000000000000000000000000000053
:103D70000000000000000000000000000000000043
:103D80000000000000000000000000000000000033
:0C3D900000000000000000000000000027
:0400000510000615CC
:00000001FF
